{
  "_format": "hh-sol-artifact-1",
  "contractName": "PyConTwNFT",
  "sourceName": "contracts/PyConTwNFT.sol",
  "abi": [
    {
      "inputs": [],
      "stateMutability": "nonpayable",
      "type": "constructor"
    },
    {
      "anonymous": false,
      "inputs": [
        {
          "indexed": true,
          "internalType": "address",
          "name": "owner",
          "type": "address"
        },
        {
          "indexed": true,
          "internalType": "address",
          "name": "approved",
          "type": "address"
        },
        {
          "indexed": true,
          "internalType": "uint256",
          "name": "tokenId",
          "type": "uint256"
        }
      ],
      "name": "Approval",
      "type": "event"
    },
    {
      "anonymous": false,
      "inputs": [
        {
          "indexed": true,
          "internalType": "address",
          "name": "owner",
          "type": "address"
        },
        {
          "indexed": true,
          "internalType": "address",
          "name": "operator",
          "type": "address"
        },
        {
          "indexed": false,
          "internalType": "bool",
          "name": "approved",
          "type": "bool"
        }
      ],
      "name": "ApprovalForAll",
      "type": "event"
    },
    {
      "anonymous": false,
      "inputs": [
        {
          "indexed": false,
          "internalType": "uint256",
          "name": "tokenId",
          "type": "uint256"
        },
        {
          "indexed": false,
          "internalType": "string",
          "name": "tokenURI",
          "type": "string"
        }
      ],
      "name": "NftEvent",
      "type": "event"
    },
    {
      "anonymous": false,
      "inputs": [
        {
          "indexed": true,
          "internalType": "address",
          "name": "previousOwner",
          "type": "address"
        },
        {
          "indexed": true,
          "internalType": "address",
          "name": "newOwner",
          "type": "address"
        }
      ],
      "name": "OwnershipTransferred",
      "type": "event"
    },
    {
      "anonymous": false,
      "inputs": [
        {
          "indexed": true,
          "internalType": "address",
          "name": "from",
          "type": "address"
        },
        {
          "indexed": true,
          "internalType": "address",
          "name": "to",
          "type": "address"
        },
        {
          "indexed": true,
          "internalType": "uint256",
          "name": "tokenId",
          "type": "uint256"
        }
      ],
      "name": "Transfer",
      "type": "event"
    },
    {
      "inputs": [
        {
          "internalType": "address",
          "name": "to",
          "type": "address"
        },
        {
          "internalType": "uint256",
          "name": "tokenId",
          "type": "uint256"
        }
      ],
      "name": "approve",
      "outputs": [],
      "stateMutability": "nonpayable",
      "type": "function"
    },
    {
      "inputs": [
        {
          "internalType": "address",
          "name": "owner",
          "type": "address"
        }
      ],
      "name": "balanceOf",
      "outputs": [
        {
          "internalType": "uint256",
          "name": "",
          "type": "uint256"
        }
      ],
      "stateMutability": "view",
      "type": "function"
    },
    {
      "inputs": [
        {
          "internalType": "uint256",
          "name": "tokenId",
          "type": "uint256"
        }
      ],
      "name": "getApproved",
      "outputs": [
        {
          "internalType": "address",
          "name": "",
          "type": "address"
        }
      ],
      "stateMutability": "view",
      "type": "function"
    },
    {
      "inputs": [
        {
          "internalType": "address",
          "name": "owner",
          "type": "address"
        },
        {
          "internalType": "address",
          "name": "operator",
          "type": "address"
        }
      ],
      "name": "isApprovedForAll",
      "outputs": [
        {
          "internalType": "bool",
          "name": "",
          "type": "bool"
        }
      ],
      "stateMutability": "view",
      "type": "function"
    },
    {
      "inputs": [
        {
          "internalType": "address",
          "name": "recipient",
          "type": "address"
        },
        {
          "internalType": "string",
          "name": "tokenURI",
          "type": "string"
        }
      ],
      "name": "mintNFT",
      "outputs": [
        {
          "internalType": "uint256",
          "name": "",
          "type": "uint256"
        }
      ],
      "stateMutability": "nonpayable",
      "type": "function"
    },
    {
      "inputs": [],
      "name": "name",
      "outputs": [
        {
          "internalType": "string",
          "name": "",
          "type": "string"
        }
      ],
      "stateMutability": "view",
      "type": "function"
    },
    {
      "inputs": [],
      "name": "owner",
      "outputs": [
        {
          "internalType": "address",
          "name": "",
          "type": "address"
        }
      ],
      "stateMutability": "view",
      "type": "function"
    },
    {
      "inputs": [
        {
          "internalType": "uint256",
          "name": "tokenId",
          "type": "uint256"
        }
      ],
      "name": "ownerOf",
      "outputs": [
        {
          "internalType": "address",
          "name": "",
          "type": "address"
        }
      ],
      "stateMutability": "view",
      "type": "function"
    },
    {
      "inputs": [],
      "name": "renounceOwnership",
      "outputs": [],
      "stateMutability": "nonpayable",
      "type": "function"
    },
    {
      "inputs": [
        {
          "internalType": "address",
          "name": "from",
          "type": "address"
        },
        {
          "internalType": "address",
          "name": "to",
          "type": "address"
        },
        {
          "internalType": "uint256",
          "name": "tokenId",
          "type": "uint256"
        }
      ],
      "name": "safeTransferFrom",
      "outputs": [],
      "stateMutability": "nonpayable",
      "type": "function"
    },
    {
      "inputs": [
        {
          "internalType": "address",
          "name": "from",
          "type": "address"
        },
        {
          "internalType": "address",
          "name": "to",
          "type": "address"
        },
        {
          "internalType": "uint256",
          "name": "tokenId",
          "type": "uint256"
        },
        {
          "internalType": "bytes",
          "name": "data",
          "type": "bytes"
        }
      ],
      "name": "safeTransferFrom",
      "outputs": [],
      "stateMutability": "nonpayable",
      "type": "function"
    },
    {
      "inputs": [
        {
          "internalType": "address",
          "name": "operator",
          "type": "address"
        },
        {
          "internalType": "bool",
          "name": "approved",
          "type": "bool"
        }
      ],
      "name": "setApprovalForAll",
      "outputs": [],
      "stateMutability": "nonpayable",
      "type": "function"
    },
    {
      "inputs": [
        {
          "internalType": "uint256",
          "name": "_tokenId",
          "type": "uint256"
        },
        {
          "internalType": "string",
          "name": "_uri",
          "type": "string"
        }
      ],
      "name": "setTokenUri",
      "outputs": [],
      "stateMutability": "nonpayable",
      "type": "function"
    },
    {
      "inputs": [
        {
          "internalType": "bytes4",
          "name": "interfaceId",
          "type": "bytes4"
        }
      ],
      "name": "supportsInterface",
      "outputs": [
        {
          "internalType": "bool",
          "name": "",
          "type": "bool"
        }
      ],
      "stateMutability": "view",
      "type": "function"
    },
    {
      "inputs": [],
      "name": "symbol",
      "outputs": [
        {
          "internalType": "string",
          "name": "",
          "type": "string"
        }
      ],
      "stateMutability": "view",
      "type": "function"
    },
    {
      "inputs": [
        {
          "internalType": "uint256",
          "name": "tokenId",
          "type": "uint256"
        }
      ],
      "name": "tokenURI",
      "outputs": [
        {
          "internalType": "string",
          "name": "",
          "type": "string"
        }
      ],
      "stateMutability": "view",
      "type": "function"
    },
    {
      "inputs": [
        {
          "internalType": "address",
          "name": "from",
          "type": "address"
        },
        {
          "internalType": "address",
          "name": "to",
          "type": "address"
        },
        {
          "internalType": "uint256",
          "name": "tokenId",
          "type": "uint256"
        }
      ],
      "name": "transferFrom",
      "outputs": [],
      "stateMutability": "nonpayable",
      "type": "function"
    },
    {
      "inputs": [
        {
          "internalType": "address",
          "name": "newOwner",
          "type": "address"
        }
      ],
      "name": "transferOwnership",
      "outputs": [],
      "stateMutability": "nonpayable",
      "type": "function"
    }
  ],
  "bytecode": "0x60806040523480156200001157600080fd5b506040518060400160405280600a81526020017f5079436f6e54774e4654000000000000000000000000000000000000000000008152506040518060400160405280600381526020017f4e46540000000000000000000000000000000000000000000000000000000000815250816000908051906020019062000096929190620001a6565b508060019080519060200190620000af929190620001a6565b505050620000d2620000c6620000d860201b60201c565b620000e060201b60201c565b620002bb565b600033905090565b6000600760009054906101000a900473ffffffffffffffffffffffffffffffffffffffff16905081600760006101000a81548173ffffffffffffffffffffffffffffffffffffffff021916908373ffffffffffffffffffffffffffffffffffffffff1602179055508173ffffffffffffffffffffffffffffffffffffffff168173ffffffffffffffffffffffffffffffffffffffff167f8be0079c531659141344cd1fd0a4f28419497f9722a3daafe3b4186f6b6457e060405160405180910390a35050565b828054620001b49062000256565b90600052602060002090601f016020900481019282620001d8576000855562000224565b82601f10620001f357805160ff191683800117855562000224565b8280016001018555821562000224579182015b828111156200022357825182559160200191906001019062000206565b5b50905062000233919062000237565b5090565b5b808211156200025257600081600090555060010162000238565b5090565b600060028204905060018216806200026f57607f821691505b602082108114156200028657620002856200028c565b5b50919050565b7f4e487b7100000000000000000000000000000000000000000000000000000000600052602260045260246000fd5b612d1580620002cb6000396000f3fe608060405234801561001057600080fd5b50600436106101165760003560e01c8063715018a6116100a2578063b88d4fde11610071578063b88d4fde146102cb578063c87b56dd146102e7578063e985e9c514610317578063eacabe1414610347578063f2fde38b1461037757610116565b8063715018a6146102695780638da5cb5b1461027357806395d89b4114610291578063a22cb465146102af57610116565b806323b872dd116100e957806323b872dd146101b557806342842e0e146101d157806357f7789e146101ed5780636352211e1461020957806370a082311461023957610116565b806301ffc9a71461011b57806306fdde031461014b578063081812fc14610169578063095ea7b314610199575b600080fd5b61013560048036038101906101309190611eae565b610393565b60405161014291906122c2565b60405180910390f35b610153610475565b60405161016091906122dd565b60405180910390f35b610183600480360381019061017e9190611f00565b610507565b604051610190919061225b565b60405180910390f35b6101b360048036038101906101ae9190611e72565b61054d565b005b6101cf60048036038101906101ca9190611d18565b610665565b005b6101eb60048036038101906101e69190611d18565b6106c5565b005b61020760048036038101906102029190611f29565b6106e5565b005b610223600480360381019061021e9190611f00565b610734565b604051610230919061225b565b60405180910390f35b610253600480360381019061024e9190611cb3565b6107e6565b60405161026091906124bf565b60405180910390f35b61027161089e565b005b61027b6108b2565b604051610288919061225b565b60405180910390f35b6102996108dc565b6040516102a691906122dd565b60405180910390f35b6102c960048036038101906102c49190611de2565b61096e565b005b6102e560048036038101906102e09190611d67565b610984565b005b61030160048036038101906102fc9190611f00565b6109e6565b60405161030e91906122dd565b60405180910390f35b610331600480360381019061032c9190611cdc565b610af9565b60405161033e91906122c2565b60405180910390f35b610361600480360381019061035c9190611e1e565b610b8d565b60405161036e91906124bf565b60405180910390f35b610391600480360381019061038c9190611cb3565b610c06565b005b60007f80ac58cd000000000000000000000000000000000000000000000000000000007bffffffffffffffffffffffffffffffffffffffffffffffffffffffff1916827bffffffffffffffffffffffffffffffffffffffffffffffffffffffff1916148061045e57507f5b5e139f000000000000000000000000000000000000000000000000000000007bffffffffffffffffffffffffffffffffffffffffffffffffffffffff1916827bffffffffffffffffffffffffffffffffffffffffffffffffffffffff1916145b8061046e575061046d82610c8a565b5b9050919050565b60606000805461048490612745565b80601f01602080910402602001604051908101604052809291908181526020018280546104b090612745565b80156104fd5780601f106104d2576101008083540402835291602001916104fd565b820191906000526020600020905b8154815290600101906020018083116104e057829003601f168201915b5050505050905090565b600061051282610cf4565b6004600083815260200190815260200160002060009054906101000a900473ffffffffffffffffffffffffffffffffffffffff169050919050565b600061055882610734565b90508073ffffffffffffffffffffffffffffffffffffffff168373ffffffffffffffffffffffffffffffffffffffff1614156105c9576040517f08c379a00000000000000000000000000000000000000000000000000000000081526004016105c09061247f565b60405180910390fd5b8073ffffffffffffffffffffffffffffffffffffffff166105e8610d3f565b73ffffffffffffffffffffffffffffffffffffffff161480610617575061061681610611610d3f565b610af9565b5b610656576040517f08c379a000000000000000000000000000000000000000000000000000000000815260040161064d906123ff565b60405180910390fd5b6106608383610d47565b505050565b610676610670610d3f565b82610e00565b6106b5576040517f08c379a00000000000000000000000000000000000000000000000000000000081526004016106ac9061249f565b60405180910390fd5b6106c0838383610e95565b505050565b6106e083838360405180602001604052806000815250610984565b505050565b6106ed6110fc565b6106f7828261117a565b7fd7bf9823ef624d0e69dbe3b8ab5aaa4949b32c53389db6266362cc6321f367ad82826040516107289291906124da565b60405180910390a15050565b6000806002600084815260200190815260200160002060009054906101000a900473ffffffffffffffffffffffffffffffffffffffff169050600073ffffffffffffffffffffffffffffffffffffffff168173ffffffffffffffffffffffffffffffffffffffff1614156107dd576040517f08c379a00000000000000000000000000000000000000000000000000000000081526004016107d49061245f565b60405180910390fd5b80915050919050565b60008073ffffffffffffffffffffffffffffffffffffffff168273ffffffffffffffffffffffffffffffffffffffff161415610857576040517f08c379a000000000000000000000000000000000000000000000000000000000815260040161084e906123bf565b60405180910390fd5b600360008373ffffffffffffffffffffffffffffffffffffffff1673ffffffffffffffffffffffffffffffffffffffff168152602001908152602001600020549050919050565b6108a66110fc565b6108b060006111ee565b565b6000600760009054906101000a900473ffffffffffffffffffffffffffffffffffffffff16905090565b6060600180546108eb90612745565b80601f016020809104026020016040519081016040528092919081815260200182805461091790612745565b80156109645780601f1061093957610100808354040283529160200191610964565b820191906000526020600020905b81548152906001019060200180831161094757829003601f168201915b5050505050905090565b610980610979610d3f565b83836112b4565b5050565b61099561098f610d3f565b83610e00565b6109d4576040517f08c379a00000000000000000000000000000000000000000000000000000000081526004016109cb9061249f565b60405180910390fd5b6109e084848484611421565b50505050565b60606109f182610cf4565b6000600660008481526020019081526020016000208054610a1190612745565b80601f0160208091040260200160405190810160405280929190818152602001828054610a3d90612745565b8015610a8a5780601f10610a5f57610100808354040283529160200191610a8a565b820191906000526020600020905b815481529060010190602001808311610a6d57829003601f168201915b505050505090506000610a9b61147d565b9050600081511415610ab1578192505050610af4565b600082511115610ae6578082604051602001610ace929190612237565b60405160208183030381529060405292505050610af4565b610aef84611494565b925050505b919050565b6000600560008473ffffffffffffffffffffffffffffffffffffffff1673ffffffffffffffffffffffffffffffffffffffff16815260200190815260200160002060008373ffffffffffffffffffffffffffffffffffffffff1673ffffffffffffffffffffffffffffffffffffffff16815260200190815260200160002060009054906101000a900460ff16905092915050565b6000610b976110fc565b610ba160086114fc565b6000610bad6008611512565b9050610bb98482611520565b610bc3818461117a565b7fd7bf9823ef624d0e69dbe3b8ab5aaa4949b32c53389db6266362cc6321f367ad8184604051610bf49291906124da565b60405180910390a18091505092915050565b610c0e6110fc565b600073ffffffffffffffffffffffffffffffffffffffff168173ffffffffffffffffffffffffffffffffffffffff161415610c7e576040517f08c379a0000000000000000000000000000000000000000000000000000000008152600401610c759061231f565b60405180910390fd5b610c87816111ee565b50565b60007f01ffc9a7000000000000000000000000000000000000000000000000000000007bffffffffffffffffffffffffffffffffffffffffffffffffffffffff1916827bffffffffffffffffffffffffffffffffffffffffffffffffffffffff1916149050919050565b610cfd816116fa565b610d3c576040517f08c379a0000000000000000000000000000000000000000000000000000000008152600401610d339061245f565b60405180910390fd5b50565b600033905090565b816004600083815260200190815260200160002060006101000a81548173ffffffffffffffffffffffffffffffffffffffff021916908373ffffffffffffffffffffffffffffffffffffffff160217905550808273ffffffffffffffffffffffffffffffffffffffff16610dba83610734565b73ffffffffffffffffffffffffffffffffffffffff167f8c5be1e5ebec7d5bd14f71427d1e84f3dd0314c0f7b2291e5b200ac8c7c3b92560405160405180910390a45050565b600080610e0c83610734565b90508073ffffffffffffffffffffffffffffffffffffffff168473ffffffffffffffffffffffffffffffffffffffff161480610e4e5750610e4d8185610af9565b5b80610e8c57508373ffffffffffffffffffffffffffffffffffffffff16610e7484610507565b73ffffffffffffffffffffffffffffffffffffffff16145b91505092915050565b8273ffffffffffffffffffffffffffffffffffffffff16610eb582610734565b73ffffffffffffffffffffffffffffffffffffffff1614610f0b576040517f08c379a0000000000000000000000000000000000000000000000000000000008152600401610f029061233f565b60405180910390fd5b600073ffffffffffffffffffffffffffffffffffffffff168273ffffffffffffffffffffffffffffffffffffffff161415610f7b576040517f08c379a0000000000000000000000000000000000000000000000000000000008152600401610f729061237f565b60405180910390fd5b610f86838383611766565b610f91600082610d47565b6001600360008573ffffffffffffffffffffffffffffffffffffffff1673ffffffffffffffffffffffffffffffffffffffff1681526020019081526020016000206000828254610fe1919061265b565b925050819055506001600360008473ffffffffffffffffffffffffffffffffffffffff1673ffffffffffffffffffffffffffffffffffffffff168152602001908152602001600020600082825461103891906125d4565b92505081905550816002600083815260200190815260200160002060006101000a81548173ffffffffffffffffffffffffffffffffffffffff021916908373ffffffffffffffffffffffffffffffffffffffff160217905550808273ffffffffffffffffffffffffffffffffffffffff168473ffffffffffffffffffffffffffffffffffffffff167fddf252ad1be2c89b69c2b068fc378daa952ba7f163c4a11628f55a4df523b3ef60405160405180910390a46110f783838361176b565b505050565b611104610d3f565b73ffffffffffffffffffffffffffffffffffffffff166111226108b2565b73ffffffffffffffffffffffffffffffffffffffff1614611178576040517f08c379a000000000000000000000000000000000000000000000000000000000815260040161116f9061243f565b60405180910390fd5b565b611183826116fa565b6111c2576040517f08c379a00000000000000000000000000000000000000000000000000000000081526004016111b9906123df565b60405180910390fd5b806006600084815260200190815260200160002090805190602001906111e9929190611ad7565b505050565b6000600760009054906101000a900473ffffffffffffffffffffffffffffffffffffffff16905081600760006101000a81548173ffffffffffffffffffffffffffffffffffffffff021916908373ffffffffffffffffffffffffffffffffffffffff1602179055508173ffffffffffffffffffffffffffffffffffffffff168173ffffffffffffffffffffffffffffffffffffffff167f8be0079c531659141344cd1fd0a4f28419497f9722a3daafe3b4186f6b6457e060405160405180910390a35050565b8173ffffffffffffffffffffffffffffffffffffffff168373ffffffffffffffffffffffffffffffffffffffff161415611323576040517f08c379a000000000000000000000000000000000000000000000000000000000815260040161131a9061239f565b60405180910390fd5b80600560008573ffffffffffffffffffffffffffffffffffffffff1673ffffffffffffffffffffffffffffffffffffffff16815260200190815260200160002060008473ffffffffffffffffffffffffffffffffffffffff1673ffffffffffffffffffffffffffffffffffffffff16815260200190815260200160002060006101000a81548160ff0219169083151502179055508173ffffffffffffffffffffffffffffffffffffffff168373ffffffffffffffffffffffffffffffffffffffff167f17307eab39ab6107e8899845ad3d59bd9653f200f220920489ca2b5937696c318360405161141491906122c2565b60405180910390a3505050565b61142c848484610e95565b61143884848484611770565b611477576040517f08c379a000000000000000000000000000000000000000000000000000000000815260040161146e906122ff565b60405180910390fd5b50505050565b606060405180602001604052806000815250905090565b606061149f82610cf4565b60006114a961147d565b905060008151116114c957604051806020016040528060008152506114f4565b806114d384611907565b6040516020016114e4929190612237565b6040516020818303038152906040525b915050919050565b6001816000016000828254019250508190555050565b600081600001549050919050565b600073ffffffffffffffffffffffffffffffffffffffff168273ffffffffffffffffffffffffffffffffffffffff161415611590576040517f08c379a00000000000000000000000000000000000000000000000000000000081526004016115879061241f565b60405180910390fd5b611599816116fa565b156115d9576040517f08c379a00000000000000000000000000000000000000000000000000000000081526004016115d09061235f565b60405180910390fd5b6115e560008383611766565b6001600360008473ffffffffffffffffffffffffffffffffffffffff1673ffffffffffffffffffffffffffffffffffffffff168152602001908152602001600020600082825461163591906125d4565b92505081905550816002600083815260200190815260200160002060006101000a81548173ffffffffffffffffffffffffffffffffffffffff021916908373ffffffffffffffffffffffffffffffffffffffff160217905550808273ffffffffffffffffffffffffffffffffffffffff16600073ffffffffffffffffffffffffffffffffffffffff167fddf252ad1be2c89b69c2b068fc378daa952ba7f163c4a11628f55a4df523b3ef60405160405180910390a46116f66000838361176b565b5050565b60008073ffffffffffffffffffffffffffffffffffffffff166002600084815260200190815260200160002060009054906101000a900473ffffffffffffffffffffffffffffffffffffffff1673ffffffffffffffffffffffffffffffffffffffff1614159050919050565b505050565b505050565b60006117918473ffffffffffffffffffffffffffffffffffffffff16611ab4565b156118fa578373ffffffffffffffffffffffffffffffffffffffff1663150b7a026117ba610d3f565b8786866040518563ffffffff1660e01b81526004016117dc9493929190612276565b602060405180830381600087803b1580156117f657600080fd5b505af192505050801561182757506040513d601f19601f820116820180604052508101906118249190611ed7565b60015b6118aa573d8060008114611857576040519150601f19603f3d011682016040523d82523d6000602084013e61185c565b606091505b506000815114156118a2576040517f08c379a0000000000000000000000000000000000000000000000000000000008152600401611899906122ff565b60405180910390fd5b805181602001fd5b63150b7a0260e01b7bffffffffffffffffffffffffffffffffffffffffffffffffffffffff1916817bffffffffffffffffffffffffffffffffffffffffffffffffffffffff1916149150506118ff565b600190505b949350505050565b6060600082141561194f576040518060400160405280600181526020017f30000000000000000000000000000000000000000000000000000000000000008152509050611aaf565b600082905060005b6000821461198157808061196a906127a8565b915050600a8261197a919061262a565b9150611957565b60008167ffffffffffffffff8111156119c3577f4e487b7100000000000000000000000000000000000000000000000000000000600052604160045260246000fd5b6040519080825280601f01601f1916602001820160405280156119f55781602001600182028036833780820191505090505b5090505b60008514611aa857600182611a0e919061265b565b9150600a85611a1d91906127f1565b6030611a2991906125d4565b60f81b818381518110611a65577f4e487b7100000000000000000000000000000000000000000000000000000000600052603260045260246000fd5b60200101907effffffffffffffffffffffffffffffffffffffffffffffffffffffffffffff1916908160001a905350600a85611aa1919061262a565b94506119f9565b8093505050505b919050565b6000808273ffffffffffffffffffffffffffffffffffffffff163b119050919050565b828054611ae390612745565b90600052602060002090601f016020900481019282611b055760008555611b4c565b82601f10611b1e57805160ff1916838001178555611b4c565b82800160010185558215611b4c579182015b82811115611b4b578251825591602001919060010190611b30565b5b509050611b599190611b5d565b5090565b5b80821115611b76576000816000905550600101611b5e565b5090565b6000611b8d611b888461252f565b61250a565b905082815260208101848484011115611ba557600080fd5b611bb0848285612703565b509392505050565b6000611bcb611bc684612560565b61250a565b905082815260208101848484011115611be357600080fd5b611bee848285612703565b509392505050565b600081359050611c0581612c83565b92915050565b600081359050611c1a81612c9a565b92915050565b600081359050611c2f81612cb1565b92915050565b600081519050611c4481612cb1565b92915050565b600082601f830112611c5b57600080fd5b8135611c6b848260208601611b7a565b91505092915050565b600082601f830112611c8557600080fd5b8135611c95848260208601611bb8565b91505092915050565b600081359050611cad81612cc8565b92915050565b600060208284031215611cc557600080fd5b6000611cd384828501611bf6565b91505092915050565b60008060408385031215611cef57600080fd5b6000611cfd85828601611bf6565b9250506020611d0e85828601611bf6565b9150509250929050565b600080600060608486031215611d2d57600080fd5b6000611d3b86828701611bf6565b9350506020611d4c86828701611bf6565b9250506040611d5d86828701611c9e565b9150509250925092565b60008060008060808587031215611d7d57600080fd5b6000611d8b87828801611bf6565b9450506020611d9c87828801611bf6565b9350506040611dad87828801611c9e565b925050606085013567ffffffffffffffff811115611dca57600080fd5b611dd687828801611c4a565b91505092959194509250565b60008060408385031215611df557600080fd5b6000611e0385828601611bf6565b9250506020611e1485828601611c0b565b9150509250929050565b60008060408385031215611e3157600080fd5b6000611e3f85828601611bf6565b925050602083013567ffffffffffffffff811115611e5c57600080fd5b611e6885828601611c74565b9150509250929050565b60008060408385031215611e8557600080fd5b6000611e9385828601611bf6565b9250506020611ea485828601611c9e565b9150509250929050565b600060208284031215611ec057600080fd5b6000611ece84828501611c20565b91505092915050565b600060208284031215611ee957600080fd5b6000611ef784828501611c35565b91505092915050565b600060208284031215611f1257600080fd5b6000611f2084828501611c9e565b91505092915050565b60008060408385031215611f3c57600080fd5b6000611f4a85828601611c9e565b925050602083013567ffffffffffffffff811115611f6757600080fd5b611f7385828601611c74565b9150509250929050565b611f868161268f565b82525050565b611f95816126a1565b82525050565b6000611fa682612591565b611fb081856125a7565b9350611fc0818560208601612712565b611fc9816128de565b840191505092915050565b6000611fdf8261259c565b611fe981856125b8565b9350611ff9818560208601612712565b612002816128de565b840191505092915050565b60006120188261259c565b61202281856125c9565b9350612032818560208601612712565b80840191505092915050565b600061204b6032836125b8565b9150612056826128ef565b604082019050919050565b600061206e6026836125b8565b91506120798261293e565b604082019050919050565b60006120916025836125b8565b915061209c8261298d565b604082019050919050565b60006120b4601c836125b8565b91506120bf826129dc565b602082019050919050565b60006120d76024836125b8565b91506120e282612a05565b604082019050919050565b60006120fa6019836125b8565b915061210582612a54565b602082019050919050565b600061211d6029836125b8565b915061212882612a7d565b604082019050919050565b6000612140602e836125b8565b915061214b82612acc565b604082019050919050565b6000612163603e836125b8565b915061216e82612b1b565b604082019050919050565b60006121866020836125b8565b915061219182612b6a565b602082019050919050565b60006121a96020836125b8565b91506121b482612b93565b602082019050919050565b60006121cc6018836125b8565b91506121d782612bbc565b602082019050919050565b60006121ef6021836125b8565b91506121fa82612be5565b604082019050919050565b6000612212602e836125b8565b915061221d82612c34565b604082019050919050565b612231816126f9565b82525050565b6000612243828561200d565b915061224f828461200d565b91508190509392505050565b60006020820190506122706000830184611f7d565b92915050565b600060808201905061228b6000830187611f7d565b6122986020830186611f7d565b6122a56040830185612228565b81810360608301526122b78184611f9b565b905095945050505050565b60006020820190506122d76000830184611f8c565b92915050565b600060208201905081810360008301526122f78184611fd4565b905092915050565b600060208201905081810360008301526123188161203e565b9050919050565b6000602082019050818103600083015261233881612061565b9050919050565b6000602082019050818103600083015261235881612084565b9050919050565b60006020820190508181036000830152612378816120a7565b9050919050565b60006020820190508181036000830152612398816120ca565b9050919050565b600060208201905081810360008301526123b8816120ed565b9050919050565b600060208201905081810360008301526123d881612110565b9050919050565b600060208201905081810360008301526123f881612133565b9050919050565b6000602082019050818103600083015261241881612156565b9050919050565b6000602082019050818103600083015261243881612179565b9050919050565b600060208201905081810360008301526124588161219c565b9050919050565b60006020820190508181036000830152612478816121bf565b9050919050565b60006020820190508181036000830152612498816121e2565b9050919050565b600060208201905081810360008301526124b881612205565b9050919050565b60006020820190506124d46000830184612228565b92915050565b60006040820190506124ef6000830185612228565b81810360208301526125018184611fd4565b90509392505050565b6000612514612525565b90506125208282612777565b919050565b6000604051905090565b600067ffffffffffffffff82111561254a576125496128af565b5b612553826128de565b9050602081019050919050565b600067ffffffffffffffff82111561257b5761257a6128af565b5b612584826128de565b9050602081019050919050565b600081519050919050565b600081519050919050565b600082825260208201905092915050565b600082825260208201905092915050565b600081905092915050565b60006125df826126f9565b91506125ea836126f9565b9250827fffffffffffffffffffffffffffffffffffffffffffffffffffffffffffffffff0382111561261f5761261e612822565b5b828201905092915050565b6000612635826126f9565b9150612640836126f9565b9250826126505761264f612851565b5b828204905092915050565b6000612666826126f9565b9150612671836126f9565b92508282101561268457612683612822565b5b828203905092915050565b600061269a826126d9565b9050919050565b60008115159050919050565b60007fffffffff0000000000000000000000000000000000000000000000000000000082169050919050565b600073ffffffffffffffffffffffffffffffffffffffff82169050919050565b6000819050919050565b82818337600083830152505050565b60005b83811015612730578082015181840152602081019050612715565b8381111561273f576000848401525b50505050565b6000600282049050600182168061275d57607f821691505b6020821081141561277157612770612880565b5b50919050565b612780826128de565b810181811067ffffffffffffffff8211171561279f5761279e6128af565b5b80604052505050565b60006127b3826126f9565b91507fffffffffffffffffffffffffffffffffffffffffffffffffffffffffffffffff8214156127e6576127e5612822565b5b600182019050919050565b60006127fc826126f9565b9150612807836126f9565b92508261281757612816612851565b5b828206905092915050565b7f4e487b7100000000000000000000000000000000000000000000000000000000600052601160045260246000fd5b7f4e487b7100000000000000000000000000000000000000000000000000000000600052601260045260246000fd5b7f4e487b7100000000000000000000000000000000000000000000000000000000600052602260045260246000fd5b7f4e487b7100000000000000000000000000000000000000000000000000000000600052604160045260246000fd5b6000601f19601f8301169050919050565b7f4552433732313a207472616e7366657220746f206e6f6e20455243373231526560008201527f63656976657220696d706c656d656e7465720000000000000000000000000000602082015250565b7f4f776e61626c653a206e6577206f776e657220697320746865207a65726f206160008201527f6464726573730000000000000000000000000000000000000000000000000000602082015250565b7f4552433732313a207472616e736665722066726f6d20696e636f72726563742060008201527f6f776e6572000000000000000000000000000000000000000000000000000000602082015250565b7f4552433732313a20746f6b656e20616c7265616479206d696e74656400000000600082015250565b7f4552433732313a207472616e7366657220746f20746865207a65726f2061646460008201527f7265737300000000000000000000000000000000000000000000000000000000602082015250565b7f4552433732313a20617070726f766520746f2063616c6c657200000000000000600082015250565b7f4552433732313a2061646472657373207a65726f206973206e6f74206120766160008201527f6c6964206f776e65720000000000000000000000000000000000000000000000602082015250565b7f45524337323155524953746f726167653a2055524920736574206f66206e6f6e60008201527f6578697374656e7420746f6b656e000000000000000000000000000000000000602082015250565b7f4552433732313a20617070726f76652063616c6c6572206973206e6f7420746f60008201527f6b656e206f776e6572206e6f7220617070726f76656420666f7220616c6c0000602082015250565b7f4552433732313a206d696e7420746f20746865207a65726f2061646472657373600082015250565b7f4f776e61626c653a2063616c6c6572206973206e6f7420746865206f776e6572600082015250565b7f4552433732313a20696e76616c696420746f6b656e2049440000000000000000600082015250565b7f4552433732313a20617070726f76616c20746f2063757272656e74206f776e6560008201527f7200000000000000000000000000000000000000000000000000000000000000602082015250565b7f4552433732313a2063616c6c6572206973206e6f7420746f6b656e206f776e6560008201527f72206e6f7220617070726f766564000000000000000000000000000000000000602082015250565b612c8c8161268f565b8114612c9757600080fd5b50565b612ca3816126a1565b8114612cae57600080fd5b50565b612cba816126ad565b8114612cc557600080fd5b50565b612cd1816126f9565b8114612cdc57600080fd5b5056fea26469706673582212205c119b27cdc93118959e5e9a6a3ea5007664b80c335ef53d7daa04437acd355364736f6c63430008010033",
  "linkReferences": {},
  "deployedLinkReferences": {}
}